:100000000C942A000C94CB030C94F2030C94190466
:100010000C9447000C9447000C9447000C94470044
:100020000C9447000C9447000C9447000C94470034
:100030000C9447000C9447000C9447000C94470024
:100040000C9447000C9447000C9447000C94470014
:100050000C94470011241FBECFE5D8E0DEBFCDBF12
:1000600010E0A0E6B0E0E2E1FEE002C005900D92F3
:10007000AA36B107D9F720E0AAE6B0E001C01D9288
:10008000AC37B207E1F70E947F020C9407070C948B
:10009000000080916D00873020F48F5F80936D00A9
:1000A000089510926D00089580916C008F5F809389
:1000B0006C00823019F118F4813039F066C0833059
:1000C000B1F1843009F448C060C080E090E0A8E459
:1000D000B3E48093640090936500A0936600B093AE
:1000E000670080E090E0A8E4B4E48093600090931F
:1000F0006100A0936200B0936300089580E090E0F7
:10010000A6E9B3E48093640090936500A093660031
:10011000B093670080E090E0AFE2B4E480936000C9
:1001200090936100A0936200B0936300089580E013
:1001300090E0AAEFB3E48093640090936500A093ED
:100140006600B09367008093600090936100A09375
:100150006200B0936300089580E090E0A8E4B4E406
:100160008093640090936500A0936600B09367004D
:1001700080E090E0A8E4B3E4809360009093610095
:10018000A0936200B0936300089510926C0080E029
:1001900090E0A8ECB2E48093640090936500A09393
:1001A0006600B093670080E090E0A1E6B4E480933D
:1001B000600090936100A0936200B0936300089583
:1001C00062E083E00E946F0263E083E00E946F02BE
:1001D00060E081E00E94730261E081E00E947302AE
:1001E00062E081E00E94730263E081E00E9473029A
:1001F0008FB780688FBF0E94A20380936B0089E451
:1002000090E00E94B70380936A0084E590E00E942A
:10021000C603089580916D00811111C060E081E0F6
:100220000E947B0261E081E00E947B0262E081E04B
:100230000E947B0263E081E00E947B02089581308E
:1002400041F560E00E947702609164007091650062
:1002500080916600909167000E941F0560E081E038
:100260000E947B0260916000709161008091620049
:10027000909163000E941F0561E081E00E947B0273
:1002800062E081E00E947B0263E081E00E947B02E9
:100290000895823069F560E081E00E94770261E0B4
:1002A00081E00E9477026091640070916500809106
:1002B0006600909167000E941F0560E081E00E9447
:1002C0007B0261E081E00E947B026091600070919E
:1002D000610080916200909163000E941F0562E0BE
:1002E00081E00E947B0263E081E00E947B0208952E
:1002F000833089F560E081E00E94770261E081E06F
:100300000E94770262E081E00E94770260916400BF
:100310007091650080916600909167000E941F05B2
:1003200060E081E00E947B0261E081E00E947B024C
:1003300062E081E00E947B02609160007091610048
:1003400080916200909163000E941F0563E081E04C
:100350000E947B0208958430A9F560E081E00E944C
:10036000770261E081E00E94770262E081E00E9412
:10037000770263E081E00E947702609164007091EF
:10038000650080916600909167000E941F0560E003
:1003900081E00E947B0261E081E00E947B0262E0DA
:1003A00081E00E947B0263E081E00E947B02609119
:1003B00060007091610080916200909163000E94E2
:1003C0001F050895853089F560E081E00E947B0279
:1003D00061E081E00E94770262E081E00E947702A2
:1003E00063E081E00E947702609164007091650093
:1003F00080916600909167000E941F0561E081E096
:100400000E947B0262E081E00E947B0263E081E067
:100410000E947B0260916000709161008091620097
:10042000909163000E941F050895863069F560E091
:1004300081E00E947B0261E081E00E947B0262E039
:1004400081E00E94770263E081E00E947702609180
:1004500064007091650080916600909167000E9431
:100460001F0562E081E00E947B0263E081E00E9460
:100470007B026091600070916100809162009091B8
:1004800063000E941F050895873041F560E081E018
:100490000E947B0261E081E00E947B0262E081E0D9
:1004A0000E947B0263E081E00E9477026091640019
:1004B0007091650080916600909167000E941F0511
:1004C00063E081E00E947B026091600070916100B6
:1004D00080916200909163000E941F05089540E0A2
:1004E0000E948402089541E00E948402089541E040
:1004F0000E941303089540E00E94130308950E9490
:10050000E0000E940A01FDCF683008F080C0813011
:1005100031F138F0823009F440C0833009F45AC018
:1005200078C041110DC02AB381E090E002C0880F6D
:10053000991F6A95E2F7809582238ABB80E008952F
:10054000413009F068C02AB381E090E002C0880F12
:10055000991F6A95E2F7822B8ABB80E008954111CA
:100560000DC027B381E090E002C0880F991F6A9503
:10057000E2F78095822387BB80E00895413009F03F
:100580004CC027B381E090E002C0880F991F6A95A4
:10059000E2F7822B87BB80E0089541110DC024B3A0
:1005A00081E090E002C0880F991F6A95E2F780957C
:1005B000822384BB80E00895413089F524B381E033
:1005C00090E002C0880F991F6A95E2F7822B84BBE6
:1005D00080E0089541110DC021B381E090E002C098
:1005E000880F991F6A95E2F78095822381BB80E08E
:1005F00008954130B1F421B381E090E002C0880F4A
:10060000991F6A95E2F7822B81BB80E0089582E012
:10061000089581E0089584E0089584E0089584E0D9
:10062000089584E00895683008F080C0813031F189
:1006300038F0823009F440C0833009F45AC078C0E1
:1006400041110DC02BB381E090E002C0880F991FCB
:100650006A95E2F7809582238BBB80E00895413054
:1006600009F068C02BB381E090E002C0880F991FA9
:100670006A95E2F7822B8BBB80E0089541110DC093
:1006800028B381E090E002C0880F991F6A95E2F7D5
:100690008095822388BB80E00895413009F04CC0EA
:1006A00028B381E090E002C0880F991F6A95E2F7B5
:1006B000822B88BB80E0089541110DC025B381E0F5
:1006C00090E002C0880F991F6A95E2F78095822317
:1006D00085BB80E00895413089F525B381E090E045
:1006E00002C0880F991F6A95E2F7822B85BB80E0D4
:1006F000089541110DC022B381E090E002C0880F3F
:10070000991F6A95E2F78095822382BB80E0089565
:100710004130B1F422B381E090E002C0880F991F0C
:100720006A95E2F7822B82BB80E0089582E008950B
:1007300081E0089583E0089583E0089583E00895BB
:1007400083E0089585B7826085BF85B78E7F85BFBA
:100750008BB780648BBF85B7886085BF85B78B7F7B
:1007600085BF8BB780688BBF8091680008959C011E
:1007700080916800833049F42115310529F03093C8
:10078000730020937200089582E0089590937100A1
:100790008093700008951F920F920FB60F9211244C
:1007A0002F933F934F935F936F937F938F939F9379
:1007B000AF93BF93EF93FF93E0917200F0917300BA
:1007C0000995FF91EF91BF91AF919F918F917F918B
:1007D0006F915F914F913F912F910F900FBE0F90AE
:1007E0001F9018951F920F920FB60F9211242F93FE
:1007F0003F934F935F936F937F938F939F93AF93A9
:10080000BF93EF93FF93E0917000F0917100099511
:10081000FF91EF91BF91AF919F918F917F916F91D8
:100820005F914F913F912F910F900FBE0F901F90AE
:1008300018951F920F920FB60F9211242F933F938A
:100840004F935F936F937F938F939F93AF93BF93D8
:10085000EF93FF93E0916E00F0916F000995FF9187
:10086000EF91BF91AF919F918F917F916F915F9128
:100870004F913F912F910F900FBE0F901F901895A1
:10088000843040F58130F1F028F0823099F08330E7
:1008900049F022C083B78F7B83BF83B7877F83BF35
:1008A00084E0089583B7806483BF83B7877F83BF65
:1008B00084E0089583B78F7B83BF83B7886083BF4D
:1008C00084E0089583B7806483BF83B7886083BF63
:1008D00084E0089581E0089581E00895853008F06E
:1008E00044C0823009F128F4882341F0813089F036
:1008F0003EC0833021F1843069F139C083B7816013
:1009000083BF83B78D7F83BF83B78B7F83BF84E033
:10091000089583B7826083BF83B78E7F83BF83B719
:100920008B7F83BF84E0089583B7816083BF83B7E3
:10093000826083BF83B78B7F83BF84E0089583B7D2
:10094000846083BF83B78D7F83BF83B78E7F83BF70
:1009500084E0089583B7816083BF83B78D7F83BFB1
:1009600083B7846083BF84E0089580E0089580E0C9
:10097000089582BF84E008958F929F92AF92BF92B4
:10098000CF92DF92EF92FF924B015C0120E030E0CA
:10099000A9010E940207181694F01EC008B600FEB6
:1009A000FDCF88B7816088BF20E030E040E85FE39A
:1009B000C701B6010E9452056B017C0103C0C12C26
:1009C000D12C7601A5019401C701B6010E94D5057D
:1009D000882324F384E02AC020E030E0A901C50187
:1009E000B4010E94D50518169CF482E01FC008B619
:1009F00000FEFDCF88B7816088BF20E030E040E88E
:100A00005FE3C701B6010E9452056B017C0103C080
:100A1000C12CD12C760120E030E040E85FE3C70133
:100A2000B6010E94D505882314F384E0FF90EF906F
:100A3000DF90CF90BF90AF909F908F90089520E06F
:100A400030E04AE754E40E94DA056093780070933E
:100A5000790080937A0090937B002DEB37E346E892
:100A600059E30E94DA050E94BE05609374007093FA
:100A70007500809376009093770080E00E94400498
:100A800080E00E94B90480E00E946E0460917400CE
:100A90007091750080917600909177000E94BC045F
:100AA00008955058BB27AA270E9469050C94B006E8
:100AB0000E94A20638F00E94A90620F039F49F3F58
:100AC00019F426F40C949F060EF4E095E7FB0C94C1
:100AD0007006E92F0E94C10658F3BA176207730720
:100AE0008407950720F079F4A6F50C94FB060EF424
:100AF000E0950B2EBA2FA02D0B01B90190010C012E
:100B0000CA01A0011124FF27591B99F0593F50F445
:100B1000503E68F11A16F040A22F232F342F44279D
:100B2000585FF3CF469537952795A795F040539595
:100B3000C9F77EF41F16BA0B620B730B840BBAF065
:100B40009150A1F0FF0FBB1F661F771F881FC2F7D0
:100B50000EC0BA0F621F731F841F48F487957795E4
:100B60006795B795F7959E3F08F0B0CF9395880F9E
:100B700008F09927EE0F9795879508950E94E30650
:100B800090F09F3748F4911116F40C94FC0660E045
:100B900070E080E89FE3089526F01B16611D711D2B
:100BA000811D0C9476060C9491060E944C0608F464
:100BB00081E008950E94EE050C94B0060E94A906FB
:100BC00058F00E94A20640F029F45F3F29F00C94EF
:100BD000700651110C94FC060C949F060E94C106ED
:100BE00068F39923B1F3552391F3951B550BBB275C
:100BF000AA2762177307840738F09F5F5F4F220FA1
:100C0000331F441FAA1FA9F335D00E2E3AF0E0E897
:100C100032D091505040E695001CCAF72BD0FE2FE1
:100C200029D0660F771F881FBB1F26173707480775
:100C3000AB07B0E809F0BB0B802DBF01FF2793582D
:100C40005F4F3AF09E3F510578F00C9470060C947B
:100C5000FC065F3FE4F3983ED4F38695779567955D
:100C6000B795F7959F5FC9F7880F911D9695879562
:100C700097F90895E1E0660F771F881FBB1F621781
:100C800073078407BA0720F0621B730B840BBA0B3F
:100C9000EE1F88F7E0950895990F0008550FAA0BED
:100CA000E0E8FEEF16161706E807F907C0F012167F
:100CB0001306E407F50798F0621B730B840B950B82
:100CC00039F40A2661F0232B242B252B21F40895D7
:100CD0000A2609F4A140A6958FEF811D811D089574
:100CE00097F99F6780E870E060E00895882371F4C9
:100CF000772321F09850872B762F07C0662311F4B5
:100D000099270DC09051862B70E060E02AF09A95EB
:100D1000660F771F881FDAF7880F9695879597F9E2
:100D200008959F3F31F0915020F48795779567950E
:100D3000B795880F911D9695879597F908959FEF20
:100D400080EC089500240A94161617061806090662
:100D5000089500240A941216130614060506089531
:100D6000092E0394000C11F4882352F0BB0F40F4B9
:100D7000BF2B11F460FF04C06F5F7F4F8F4F9F4FF9
:100D8000089557FD9058440F551F59F05F3F71F07B
:100D90004795880F97FB991F61F09F3F79F08795E2
:100DA0000895121613061406551FF2CF4695F1DF6B
:100DB00008C0161617061806991FF1CF86957105FB
:100DC0006105089408950E94C906A0F0BEE7B9170E
:100DD00088F4BB279F3860F41616B11D672F782F53
:100DE0008827985FF7CF869577956795B11D93957E
:100DF0009639C8F30895E894BB2766277727CB0177
:100E000097F908950E944C0608F48FEF0895F8941E
:020E1000FFCF12
:0A0E1200000061440000C842030024
:00000001FF
