S00F0000737072696E74732E7372656302
S11300000C942A000C94F7030C941E040C944504DD
S11300100C9447000C9447000C9447000C94470040
S11300200C9447000C9447000C9447000C94470030
S11300300C9447000C9447000C9447000C94470020
S11300400C9447000C9447000C9447000C94470010
S11300500C94470011241FBECFE5D8E0DEBFCDBF0E
S113006010E0A0E6B0E0EAE6FEE002C005900D92E2
S1130070AA36B107D9F720E0AAE6B0E001C01D9284
S1130080AC37B207E1F70E94AB020C9433070C942F
S1130090000080916D00873020F48F5F80936D00A5
S11300A0089510926D00089580916C008F5F809385
S11300B06C00823019F118F4813039F066C0833055
S11300C0B1F1843009F448C060C080E090E0A8E455
S11300D0B3E48093640090936500A0936600B093AA
S11300E0670080E090E0A8E4B4E48093600090931B
S11300F06100A0936200B0936300089580E090E0F3
S1130100A6E9B3E48093640090936500A09366002D
S1130110B093670080E090E0AFE2B4E480936000C5
S113012090936100A0936200B0936300089580E00F
S113013090E0AAEFB3E48093640090936500A093E9
S11301406600B09367008093600090936100A09371
S11301506200B0936300089580E090E0A8E4B4E402
S11301608093640090936500A0936600B093670049
S113017080E090E0A8E4B3E4809360009093610091
S1130180A0936200B0936300089510926C0080E025
S113019090E0A8ECB2E48093640090936500A0938F
S11301A06600B093670080E090E0A1E6B4E4809339
S11301B0600090936100A0936200B093630008957F
S11301C062E083E00E946F0263E083E00E946F02BA
S11301D060E081E00E947F0261E081E00E947F0292
S11301E062E081E00E947F0263E081E00E947F027E
S11301F08FB780688FBF0E94CE0380936B0089E421
S113020090E00E94E30380936A0084E590E00E94FA
S1130210F203089580916D00811111C060E081E0C6
S11302200E949F0261E081E00E949F0262E081E0FF
S11302300E949F0263E081E00E949F020895813042
S113024041F560E00E948F02609164007091650046
S113025080916600909167000E944B0560E081E008
S11302600E949F0260916000709161008091620021
S1130270909163000E944B0561E081E00E949F021F
S113028062E081E00E949F0263E081E00E949F029D
S11302900895823069F560E081E00E948F0261E098
S11302A081E00E948F0260916400709165008091EA
S11302B06600909167000E944B0560E081E00E9417
S11302C09F0261E081E00E949F0260916000709152
S11302D0610080916200909163000E944B0562E08E
S11302E081E00E949F0263E081E00E949F020895E2
S11302F0833089F560E081E00E948F0261E081E053
S11303000E948F0262E081E00E948F02609164008B
S11303107091650080916600909167000E944B0582
S113032060E081E00E949F0261E081E00E949F0200
S113033062E081E00E949F02609160007091610020
S113034080916200909163000E944B0563E081E01C
S11303500E949F0208958430A9F560E081E00E9424
S11303608F0261E081E00E948F0262E081E00E94DE
S11303708F0263E081E00E948F02609164007091BB
S1130380650080916600909167000E944B0560E0D3
S113039081E00E949F0261E081E00E949F0262E08E
S11303A081E00E949F0263E081E00E949F026091CD
S11303B060007091610080916200909163000E94DE
S11303C04B050895853089F560E081E00E949F0225
S11303D061E081E00E948F0262E081E00E948F026E
S11303E063E081E00E948F02609164007091650077
S11303F080916600909167000E944B0561E081E066
S11304000E949F0262E081E00E949F0263E081E01B
S11304100E949F026091600070916100809162006F
S1130420909163000E944B050895863069F560E061
S113043081E00E949F0261E081E00E949F0262E0ED
S113044081E00E948F0263E081E00E948F0260914C
S113045064007091650080916600909167000E942D
S11304604B0562E081E00E949F0263E081E00E940C
S11304709F02609160007091610080916200909190
S113048063000E944B050895873041F560E081E0E8
S11304900E949F0261E081E00E949F0262E081E08D
S11304A00E949F0263E081E00E948F0260916400D9
S11304B07091650080916600909167000E944B05E1
S11304C063E081E00E949F0260916000709161008E
S11304D080916200909163000E944B05089540E072
S11304E00E94B002813029F0823029F0843029F44E
S11304F0089581E0089582E0089580E0089541E040
S11305000E94B002813029F0823029F0843029F42D
S1130510089581E0089582E0089580E0089541E01F
S11305200E943F03813029F0823029F0833029F47E
S1130530089581E0089582E0089580E0089540E000
S11305400E943F03813019F0833019F4089581E04B
S1130550089580E008950E94E0000E940A01FDCF02
S1130560683008F080C0813031F138F0823009F40D
S113057040C0833009F45AC078C041110DC02AB379
S113058081E090E002C0880F991F6A95E2F7809598
S113059082238ABB80E00895413009F068C02AB301
S11305A081E090E002C0880F991F6A95E2F7822BE0
S11305B08ABB80E0089541110DC027B381E090E02B
S11305C002C0880F991F6A95E2F78095822387BB42
S11305D080E00895413009F04CC027B381E090E0F9
S11305E002C0880F991F6A95E2F7822B87BB80E0CF
S11305F0089541110DC024B381E090E002C0880F3A
S1130600991F6A95E2F78095822384BB80E0089560
S1130610413089F524B381E090E002C0880F991F2E
S11306206A95E2F7822B84BB80E0089541110DC0E6
S113063021B381E090E002C0880F991F6A95E2F728
S11306408095822381BB80E008954130B1F421B3C9
S113065081E090E002C0880F991F6A95E2F7822B2F
S113066081BB80E0089582E0089581E0089584E0EC
S1130670089584E0089584E0089584E0089568303E
S113068008F080C0813031F138F0823009F440C084
S1130690833009F45AC078C041110DC02BB381E0F6
S11306A090E002C0880F991F6A95E2F78095822333
S11306B08BBB80E00895413009F068C02BB381E022
S11306C090E002C0880F991F6A95E2F7822B8BBBDA
S11306D080E0089541110DC028B381E090E002C08C
S11306E0880F991F6A95E2F78095822388BB80E082
S11306F00895413009F04CC028B381E090E002C075
S1130700880F991F6A95E2F7822B88BB80E00895D1
S113071041110DC025B381E090E002C0880F991FFC
S11307206A95E2F78095822385BB80E00895413085
S113073089F525B381E090E002C0880F991F6A957E
S1130740E2F7822B85BB80E0089541110DC022B3EE
S113075081E090E002C0880F991F6A95E2F78095C6
S1130760822382BB80E008954130B1F422B381E05A
S113077090E002C0880F991F6A95E2F7822B82BB32
S113078080E0089582E0089581E0089583E008956B
S113079083E0089583E0089583E0089585B7826037
S11307A085BF85B78E7F85BF8BB780648BBF85B7C8
S11307B0886085BF85B78B7F85BF8BB780688BBF0B
S11307C08091680008959C0180916800833049F409
S11307D02115310529F03093730020937200089598
S11307E082E00895909371008093700008951F92A1
S11307F00F920FB60F9211242F933F934F935F9351
S11308006F937F938F939F93AF93BF93EF93FF93D4
S1130810E0917200F09173000995FF91EF91BF91FF
S1130820AF919F918F917F916F915F914F913F9184
S11308302F910F900FBE0F901F9018951F920F923B
S11308400FB60F9211242F933F934F935F936F939F
S11308507F938F939F93AF93BF93EF93FF93E09115
S11308607000F09171000995FF91EF91BF91AF91E4
S11308709F918F917F916F915F914F913F912F91B4
S11308800F900FBE0F901F9018951F920F920FB6E6
S11308900F9211242F933F934F935F936F937F9302
S11308A08F939F93AF93BF93EF93FF93E0916E0069
S11308B0F0916F000995FF91EF91BF91AF919F91D6
S11308C08F917F916F915F914F913F912F910F90F5
S11308D00FBE0F901F901895843040F58130F1F0D1
S11308E028F0823099F0833049F022C083B78F7B9F
S11308F083BF83B7877F83BF84E0089583B7806411
S113090083BF83B7877F83BF84E0089583B78F7BDA
S113091083BF83B7886083BF84E0089583B780640E
S113092083BF83B7886083BF84E0089581E008951E
S113093081E00895853008F044C0823009F128F43C
S1130940882341F0813089F03EC0833021F1843026
S113095069F139C083B7816083BF83B78D7F83BF5B
S113096083B78B7F83BF84E0089583B7826083BF9E
S113097083B78E7F83BF83B78B7F83BF84E0089563
S113098083B7816083BF83B7826083BF83B78B7F64
S113099083BF84E0089583B7846083BF83B78D7F6A
S11309A083BF83B78E7F83BF84E0089583B781605C
S11309B083BF83B78D7F83BF83B7846083BF84E0A5
S11309C0089580E0089580E0089582BF84E008954A
S11309D08F929F92AF92BF92CF92DF92EF92FF924B
S11309E04B015C0120E030E0A9010E942E0718169B
S11309F094F01EC008B600FEFDCF88B7816088BFA2
S1130A0020E030E040E85FE3C701B6010E947E05C4
S1130A106B017C0103C0C12CD12C7601A50194018A
S1130A20C701B6010E940106882324F384E02AC08A
S1130A3020E030E0A901C501B4010E9401061816A6
S1130A409CF482E01FC008B600FEFDCF88B7816029
S1130A5088BF20E030E040E85FE3C701B6010E94B0
S1130A607E056B017C0103C0C12CD12C760120E0F2
S1130A7030E040E85FE3C701B6010E940106882325
S1130A8014F384E0FF90EF90DF90CF90BF90AF908D
S1130A909F908F90089520E030E04AE754E40E944C
S1130AA00606609378007093790080937A0090939F
S1130AB07B002DEB37E346E859E30E9406060E94CB
S1130AC0EA056093740070937500809376009093A8
S1130AD0770080E00E946C0480E00E94E50480E0DE
S1130AE00E949A0460917400709175008091760060
S1130AF0909177000E94E80408955058BB27AA27D4
S1130B000E9495050C94DC060E94CE0638F00E94E3
S1130B10D50620F039F49F3F19F426F40C94CB0643
S1130B200EF4E095E7FB0C949C06E92F0E94ED0679
S1130B3058F3BA17620773078407950720F079F40E
S1130B40A6F50C9427070EF4E0950B2EBA2FA02DD2
S1130B500B01B90190010C01CA01A0011124FF2766
S1130B60591B99F0593F50F4503E68F11A16F04061
S1130B70A22F232F342F4427585FF3CF4695379560
S1130B802795A795F0405395C9F77EF41F16BA0B25
S1130B90620B730B840BBAF09150A1F0FF0FBB1FD3
S1130BA0661F771F881FC2F70EC0BA0F621F731F1C
S1130BB0841F48F4879577956795B795F7959E3F79
S1130BC008F0B0CF9395880F08F09927EE0F97950A
S1130BD0879508950E940F0790F09F3748F491116C
S1130BE016F40C94280760E070E080E89FE3089511
S1130BF026F01B16611D711D811D0C94A2060C9418
S1130C00BD060E94780608F481E008950E941A0641
S1130C100C94DC060E94D50658F00E94CE0640F0E3
S1130C2029F45F3F29F00C949C0651110C94280779
S1130C300C94CB060E94ED0668F39923B1F3552377
S1130C4091F3951B550BBB27AA27621773078407DB
S1130C5038F09F5F5F4F220F331F441FAA1FA9F371
S1130C6035D00E2E3AF0E0E832D091505040E6955F
S1130C70001CCAF72BD0FE2F29D0660F771F881FC0
S1130C80BB1F261737074807AB07B0E809F0BB0BB3
S1130C90802DBF01FF2793585F4F3AF09E3F5105C7
S1130CA078F00C949C060C9428075F3FE4F3983E7C
S1130CB0D4F3869577956795B795F7959F5FC9F7B0
S1130CC0880F911D9695879597F90895E1E0660F31
S1130CD0771F881FBB1F621773078407BA0720F0AA
S1130CE0621B730B840BBA0BEE1F88F7E095089513
S1130CF0990F0008550FAA0BE0E8FEEF1616170629
S1130D00E807F907C0F012161306E407F50798F090
S1130D10621B730B840B950B39F40A2661F0232BA9
S1130D20242B252B21F408950A2609F4A140A69525
S1130D308FEF811D811D089597F99F6780E870E00A
S1130D4060E00895882371F4772321F09850872B6D
S1130D50762F07C0662311F499270DC09051862B76
S1130D6070E060E02AF09A95660F771F881FDAF723
S1130D70880F9695879597F908959F3F31F0915084
S1130D8020F4879577956795B795880F911D96956B
S1130D90879597F908959FEF80EC089500240A94AD
S1130DA01616170618060906089500240A94121642
S1130DB01306140605060895092E0394000C11F475
S1130DC0882352F0BB0F40F4BF2B11F460FF04C022
S1130DD06F5F7F4F8F4F9F4F089557FD9058440F7B
S1130DE0551F59F05F3F71F04795880F97FB991F86
S1130DF061F09F3F79F08795089512161306140643
S1130E00551FF2CF4695F1DF08C0161617061806CF
S1130E10991FF1CF869571056105089408950E9484
S1130E20F506A0F0BEE7B91788F4BB279F3860F435
S1130E301616B11D672F782F8827985FF7CF8695F0
S1130E4077956795B11D93959639C8F30895E894FD
S1130E50BB2766277727CB0197F908950E94780668
S10D0E6008F48FEF0895F894FFCF13
S10D0E6A000061440000C8420300C8
S9030000FC
