:100000000C942A000C9434000C9434000C943400AA
:100010000C9434000C9434000C9434000C94340090
:100020000C9434000C9434000C9434000C94340080
:100030000C9434000C9434000C9434000C94340070
:100040000C9434000C9434000C9434000C94340060
:100050000C94340011241FBECFE5D8E0DEBFCDBF25
:100060000E94E1000C9475020C94000060E081E0B5
:100070000E94BA0061E081E00E94BA0062E081E083
:100080000E94BA0063E081E00E94BA0061E082E071
:100090000E94A1000895CF93DF931F92CDB7DEB7E2
:1000A00010E0AE014F5F5F4F61E082E00E94AE0062
:1000B0008981813061F41F5F07C0AE014F5F5F4FE0
:1000C00061E082E00E94AE0089818130B1F311309D
:1000D00029F460E081E00E94C700E3CF123029F4E8
:1000E00061E081E00E94C700DCCF133029F462E0B8
:1000F00081E00E94C700D5CF143029F463E081E08D
:100100000E94C700CECF153029F460E081E00E9444
:10011000D400C7CF163029F461E081E00E94D400FA
:10012000C0CF173029F462E081E00E94D400B9CF3B
:10013000183009F0B6CF63E081E00E94D40010E0EF
:10014000B0CF843038F4683038F440E00E94E800E2
:1001500080E0089581E0089581E00895843030F4CE
:10016000683030F40E94040280E0089581E0089530
:1001700081E00895843038F4683038F441E00E941A
:10018000E80080E0089581E0089581E008958430DA
:1001900038F4683038F441E00E94770180E0089537
:1001A00081E0089581E00895843038F4683038F4AF
:1001B00040E00E94770180E0089581E0089581E0A9
:1001C00008950E9436000E944B0080E090E0089560
:1001D000843008F07EC0683008F07DC0813021F1A5
:1001E00030F08230F1F1833009F457C076C041110C
:1001F0000CC02AB38EEF9FEF02C0880F991F6A953B
:10020000E2F782238ABB80E00895413009F067C09D
:100210002AB381E090E002C0880F991F6A95E2F747
:10022000822B8ABB80E0089541110CC027B38EEF6A
:100230009FEF02C0880F991F6A95E2F7822387BB60
:1002400080E00895413009F04CC027B381E090E090
:1002500002C0880F991F6A95E2F7822B87BB80E066
:10026000089541110CC024B38EEF9FEF02C0880F98
:10027000991F6A95E2F7822384BB80E0089541309C
:1002800091F524B381E090E002C0880F991F6A9530
:10029000E2F7822B84BB80E0089541110CC021B3AA
:1002A0008EEF9FEF02C0880F991F6A95E2F78223B5
:1002B00081BB80E008954130C1F421B381E090E03A
:1002C00002C0880F991F6A95E2F7822B81BB80E0FC
:1002D000089581E0089581E0089581E0089581E026
:1002E000089581E0089581E0089581E008958430C3
:1002F00008F07CC0683008F07BC0813019F130F024
:100300008230E1F1833009F455C074C0413061F4AA
:100310002BB381E090E002C0880F991F6A95E2F745
:10032000822B8BBB80E00895411166C02BB38EEF0A
:100330009FEF02C0880F991F6A95E2F782238BBB5B
:1003400080E00895413061F428B381E090E002C07C
:10035000880F991F6A95E2F7822B88BB80E0089589
:1003600041114CC028B38EEF9FEF02C0880F991F38
:100370006A95E2F7822388BB80E00895413061F4FA
:1003800025B381E090E002C0880F991F6A95E2F7DB
:10039000822B85BB80E00895411132C025B38EEFDA
:1003A0009FEF02C0880F991F6A95E2F7822385BBF1
:1003B00080E00895413061F422B381E090E002C012
:1003C000880F991F6A95E2F7822B82BB80E008951F
:1003D000411118C022B38EEF9FEF02C0880F991F02
:1003E0006A95E2F7822382BB80E0089581E0089558
:1003F00081E0089581E0089581E0089581E0089505
:1004000081E0089581E00895843008F068C0683084
:1004100008F067C08130F1F030F0823091F1833024
:1004200009F446C060C079B381E090E09C01062EDB
:1004300002C0220F331F0A94E2F7872F90E0822335
:10044000932302C0959587956A95E2F7FA01808318
:1004500080E0089576B381E090E09C01062E02C012
:10046000220F331F0A94E2F7872F90E08223932311
:1004700002C0959587956A95E2F7FA01808380E03E
:10048000089573B381E090E09C01062E02C0220F14
:10049000331F0A94E2F7872F90E08223932302C050
:1004A000959587956A95E2F7FA01808380E0089533
:1004B00070B381E090E09C01062E02C0220F331F32
:1004C0000A94E2F7872F90E08223932302C0959548
:1004D00087956A95E2F7FA01808380E0089581E0CC
:0E04E000089581E0089581E00895F894FFCF1B
:00000001FF
