:100000000C9432000C944F000C944F000C944F0051
:100010000C944F000C944F000C944F000C944F0024
:100020000C944F000C944F000C944F000C944F0014
:100030000C944F000C944F000C944F000C944F0004
:100040000C944F000C944F000C944F000C944F00F4
:100050000C944F0010041A0424042E0438044204A3
:100060004C04560411241FBECFE5D8E0DEBFCDBF3F
:1000700010E0A0E6B0E0E4E6FDE002C005900D92DD
:10008000AA36B107D9F720E0AAE6B0E001C01D9278
:10009000AA37B207E1F70E94A9020C94B0060C94AB
:1000A000000080916D00873020F48F5F80936D0099
:1000B000089510926D00089580916C008F5F809379
:1000C0006C00823019F118F4813039F066C0833049
:1000D000B1F1843009F448C060C080E090E0A8E449
:1000E000B3E48093640090936500A0936600B0939E
:1000F000670080E090E0A8E4B4E48093600090930F
:100100006100A0936200B0936300089580E090E0E6
:10011000A6E9B3E48093640090936500A093660021
:10012000B093670080E090E0AFE2B4E480936000B9
:1001300090936100A0936200B0936300089580E003
:1001400090E0AAEFB3E48093640090936500A093DD
:100150006600B09367008093600090936100A09365
:100160006200B0936300089580E090E0A8E4B4E4F6
:100170008093640090936500A0936600B09367003D
:1001800080E090E0A8E4B3E4809360009093610085
:10019000A0936200B0936300089510926C0080E019
:1001A00090E0A8ECB2E48093640090936500A09383
:1001B0006600B093670080E090E0A1E6B4E480932D
:1001C000600090936100A0936200B0936300089573
:1001D00060E081E00E94820261E081E00E94820290
:1001E00062E081E00E94820263E081E00E9482027C
:1001F00062E083E00E94750263E083E00E94750282
:1002000078940E94B60380936B0081E590E00E9491
:10021000CB0380936A008CE590E00E94DA03089596
:1002200080916D00811111C060E081E00E949C020C
:1002300061E081E00E949C0262E081E00E949C02F9
:1002400063E081E00E949C020895813041F560E006
:100250000E948F0260916400709165008091660039
:10026000909167000E94C20460E081E00E949C02BD
:1002700060916000709161008091620090916300D4
:100280000E94C20461E081E00E949C0262E081E081
:100290000E949C0263E081E00E949C0208958230EB
:1002A00069F560E081E00E948F0261E081E00E94D8
:1002B0008F0260916400709165008091660090915A
:1002C00067000E94C20460E081E00E949C0261E03D
:1002D00081E00E949C0260916000709161008091B9
:1002E0006200909163000E94C20462E081E00E947B
:1002F0009C0263E081E00E949C020895833089F5AE
:1003000060E081E00E948F0261E081E00E948F0244
:1003100062E081E00E948F0260916400709165004C
:1003200080916600909167000E94C20460E081E0C5
:100330000E949C0261E081E00E949C0262E081E0F8
:100340000E949C0260916000709161008091620047
:10035000909163000E94C20463E081E00E949C02CD
:1003600008958430A9F560E081E00E948F0261E089
:1003700081E00E948F0262E081E00E948F0263E0D0
:1003800081E00E948F02609164007091650080910D
:100390006600909167000E94C20460E081E00E94C4
:1003A0009C0261E081E00E949C0262E081E00E9488
:1003B0009C0263E081E00E949C0260916000709169
:1003C000610080916200909163000E94C2040895D0
:1003D000853089F560E081E00E949C0261E081E067
:1003E0000E948F0262E081E00E948F0263E081E060
:1003F0000E948F0260916400709165008091660098
:10040000909167000E94C20461E081E00E949C021A
:1004100062E081E00E949C0263E081E00E949C0215
:100420006091600070916100809162009091630022
:100430000E94C2040895863069F560E081E00E9460
:100440009C0261E081E00E949C0262E081E00E94E7
:100450008F0263E081E00E948F02609164007091DE
:10046000650080916600909167000E94C20462E07E
:1004700081E00E949C0263E081E00E949C02609106
:1004800060007091610080916200909163000E9411
:10049000C2040895873041F560E081E00E949C022B
:1004A00061E081E00E949C0262E081E00E949C0287
:1004B00063E081E00E948F026091640070916500AA
:1004C00080916600909167000E94C20463E081E021
:1004D0000E949C02609160007091610080916200B6
:1004E000909163000E94C2040895843038F468300B
:1004F00038F440E00E94AE0280E0089581E0089563
:1005000081E00895843038F4683038F441E00E9486
:10051000AE0280E0089581E0089581E0089584307E
:1005200038F4683038F441E00E94330380E00895E5
:1005300081E0089581E00895843038F4683038F41B
:1005400040E00E94330380E0089581E0089581E057
:1005500008950E94E8000E941001FDCF813021F132
:1005600030F08230F1F1833009F457C072C041118C
:100570000CC02AB38EEF9FEF02C0880F991F6A95B7
:10058000E2F782238ABB80E00895413009F063C01E
:100590002AB381E090E002C0880F991F6A95E2F7C4
:1005A000822B8ABB80E0089541110CC027B38EEFE7
:1005B0009FEF02C0880F991F6A95E2F7822387BBDD
:1005C00080E00895413009F048C027B381E090E011
:1005D00002C0880F991F6A95E2F7822B87BB80E0E3
:1005E000089541110CC024B38EEF9FEF02C0880F15
:1005F000991F6A95E2F7822384BB80E00895413019
:1006000071F524B381E090E002C0880F991F6A95CC
:10061000E2F7822B84BB80E0089541110CC021B326
:100620008EEF9FEF02C0880F991F6A95E2F7822331
:1006300081BB80E008954130A1F421B381E090E0D6
:1006400002C0880F991F6A95E2F7822B81BB80E078
:10065000089580E0089581E0089581E0089581E0A3
:10066000089581E00895813019F130F08230E1F190
:10067000833009F455C070C0413061F42BB381E080
:1006800090E002C0880F991F6A95E2F7822B8BBB1E
:1006900080E00895411162C02BB38EEF9FEF02C03E
:1006A000880F991F6A95E2F782238BBB80E008953B
:1006B000413061F428B381E090E002C0880F991FB7
:1006C0006A95E2F7822B88BB80E00895411148C00B
:1006D00028B38EEF9FEF02C0880F991F6A95E2F74B
:1006E000822388BB80E00895413061F425B381E026
:1006F00090E002C0880F991F6A95E2F7822B85BBB4
:1007000080E0089541112EC025B38EEF9FEF02C007
:10071000880F991F6A95E2F7822385BB80E00895D0
:10072000413061F422B381E090E002C0880F991F4C
:100730006A95E2F7822B82BB80E00895411114C0D4
:1007400022B38EEF9FEF02C0880F991F6A95E2F7E0
:10075000822382BB80E0089580E0089581E00895BF
:1007600081E0089581E0089581E0089585B7826071
:1007700085BF85B78E7F85BF8BB780648BBF85B7FC
:10078000886085BF85B7887F85BF8BB780688BBF42
:100790008091680008959C0180916800833049F43D
:1007A0002115310529F030937100209370000895D0
:1007B00082E0089590936F0080936E0008958130D9
:1007C00069F028F08230C1F0833079F01BC083B724
:1007D000807883BF83B7807F83BF14C083B7806472
:1007E00083BF83B7807F83BF0DC083B7807883BF0B
:1007F00083B7886083BF06C083B7806483BF83B735
:10080000886083BF80E0089582BF089590E08830BB
:10081000910508F054C0FC01E65DFF4F0C94AA0658
:1008200083B78E7F83BF83B78C7F83BF83B7887F77
:1008300083BF45C083B7816083BF83B78C7F83BF8D
:1008400083B7887F83BF3BC083B78E7F83BF83B767
:10085000826083BF83B7887F83BF31C083B78160E5
:1008600083BF83B7826083BF83B7887F83BF27C07E
:1008700083B78E7F83BF83B78C7F83BF83B784604A
:1008800083BF1DC083B7816083BF83B78C7F83BF65
:1008900083B7846083BF13C083B78E7F83BF83B762
:1008A000826083BF83B7846083BF09C083B78160E0
:1008B00083BF83B7826083BF83B7846083BF80E0D8
:1008C00008958F929F92AF92BF92CF92DF92EF9254
:1008D000FF924B015C0120E030E0A9010E94A506D7
:1008E000181694F01DC008B600FEFDCF88B78160D1
:1008F00088BF20E030E040E85FE3C701B6010E9416
:10090000F5046B017C0103C0C12CD12C7601A5013B
:100910009401C701B6010E947805882324F328C0FA
:1009200020E030E0A901C501B4010E947805181645
:10093000FCF011C008B600FEFDCF88B7816088BF0B
:1009400020E030E040E85FE3C701B6010E94F50413
:100950006B017C0103C0C12CD12C760120E030E07A
:1009600040E85FE3C701B6010E947805882314F3CD
:1009700080E0FF90EF90DF90CF90BF90AF909F907E
:100980008F90089520E030E04AE754E40E947D050E
:10099000609372007093730080937400909375005D
:1009A0002DEB37E346E859E30E947D050E9461057F
:1009B000609376007093770080937800909379002D
:1009C00080E00E94DF0380E00E94040481E00E9436
:1009D0000604609176007091770080917800909184
:1009E00079000E94610408955058BB27AA270E94ED
:1009F0000C050C9453060E94450638F00E944C06E4
:100A000020F039F49F3F19F426F40C9442060EF4BA
:100A1000E095E7FB0C941306E92F0E94640658F357
:100A2000BA17620773078407950720F079F4A6F5D3
:100A30000C949E060EF4E0950B2EBA2FA02D0B0100
:100A4000B90190010C01CA01A0011124FF27591B13
:100A500099F0593F50F4503E68F11A16F040A22F19
:100A6000232F342F4427585FF3CF4695379527958A
:100A7000A795F0405395C9F77EF41F16BA0B620B89
:100A8000730B840BBAF09150A1F0FF0FBB1F661FD0
:100A9000771F881FC2F70EC0BA0F621F731F841F13
:100AA00048F4879577956795B795F7959E3F08F039
:100AB000B0CF9395880F08F09927EE0F97958795FB
:100AC00008950E94860690F09F3748F4911116F41D
:100AD0000C949F0660E070E080E89FE3089526F0A4
:100AE0001B16611D711D811D0C9419060C94340692
:100AF0000E94EF0508F481E008950E9491050C948E
:100B000053060E944C0658F00E94450640F029F416
:100B10005F3F29F00C94130651110C949F060C941E
:100B200042060E94640668F39923B1F3552391F3BA
:100B3000951B550BBB27AA2762177307840738F04C
:100B40009F5F5F4F220F331F441FAA1FA9F335D0A9
:100B50000E2E3AF0E0E832D091505040E695001C5D
:100B6000CAF72BD0FE2F29D0660F771F881FBB1F17
:100B7000261737074807AB07B0E809F0BB0B802DF5
:100B8000BF01FF2793585F4F3AF09E3F510578F021
:100B90000C9413060C949F065F3FE4F3983ED4F345
:100BA000869577956795B795F7959F5FC9F7880FF5
:100BB000911D9695879597F90895E1E0660F771F47
:100BC000881FBB1F621773078407BA0720F0621BD8
:100BD000730B840BBA0BEE1F88F7E0950895990FFD
:100BE0000008550FAA0BE0E8FEEF16161706E807F7
:100BF000F907C0F012161306E407F50798F0621B18
:100C0000730B840B950B39F40A2661F0232B242BEC
:100C1000252B21F408950A2609F4A140A6958FEF0B
:100C2000811D811D089597F99F6780E870E060E05D
:100C30000895882371F4772321F09850872B762F1D
:100C400007C0662311F499270DC09051862B70E0E0
:100C500060E02AF09A95660F771F881FDAF7880FF1
:100C60009695879597F908959F3F31F0915020F41C
:100C7000879577956795B795880F911D9695879578
:100C800097F908959FEF80EC089500240A941616B2
:100C9000170618060906089500240A94121613066A
:100CA000140605060895092E0394000C11F48823F8
:100CB00052F0BB0F40F4BF2B11F460FF04C06F5F14
:100CC0007F4F8F4F9F4F089557FD9058440F551FEA
:100CD00059F05F3F71F04795880F97FB991F61F0BE
:100CE0009F3F79F087950895121613061406551F35
:100CF000F2CF4695F1DF08C0161617061806991FA1
:100D0000F1CF869571056105089408950E946C06DF
:100D1000A0F0BEE7B91788F4BB279F3860F4161619
:100D2000B11D672F782F8827985FF7CF8695779525
:100D30006795B11D93959639C8F30895E894BB273C
:100D400066277727CB0197F908950E94EF0508F4ED
:100D50008FEF0895EE0FFF1F0590F491E02D099499
:040D6000F894FFCF35
:0A0D6400000061440000C8420300D3
:00000001FF
